{
  "contractName": "ReferenceToken",
  "abi": [
    {
      "constant": false,
      "inputs": [
        {
          "name": "_newOwner",
          "type": "address"
        }
      ],
      "name": "changeOwnership",
      "outputs": [],
      "payable": false,
      "stateMutability": "nonpayable",
      "type": "function"
    },
    {
      "constant": false,
      "inputs": [
        {
          "name": "_dac",
          "type": "address"
        }
      ],
      "name": "removeOwnership",
      "outputs": [],
      "payable": false,
      "stateMutability": "nonpayable",
      "type": "function"
    },
    {
      "constant": false,
      "inputs": [
        {
          "name": "_newOwnerCandidate",
          "type": "address"
        }
      ],
      "name": "proposeOwnership",
      "outputs": [],
      "payable": false,
      "stateMutability": "nonpayable",
      "type": "function"
    },
    {
      "constant": false,
      "inputs": [],
      "name": "acceptOwnership",
      "outputs": [],
      "payable": false,
      "stateMutability": "nonpayable",
      "type": "function"
    },
    {
      "constant": true,
      "inputs": [],
      "name": "owner",
      "outputs": [
        {
          "name": "",
          "type": "address"
        }
      ],
      "payable": false,
      "stateMutability": "view",
      "type": "function"
    },
    {
      "constant": true,
      "inputs": [],
      "name": "newOwnerCandidate",
      "outputs": [
        {
          "name": "",
          "type": "address"
        }
      ],
      "payable": false,
      "stateMutability": "view",
      "type": "function"
    },
    {
      "inputs": [
        {
          "name": "_name",
          "type": "string"
        },
        {
          "name": "_symbol",
          "type": "string"
        },
        {
          "name": "_granularity",
          "type": "uint256"
        },
        {
          "name": "_validator",
          "type": "address"
        }
      ],
      "payable": false,
      "stateMutability": "nonpayable",
      "type": "constructor"
    },
    {
      "anonymous": false,
      "inputs": [
        {
          "indexed": true,
          "name": "result",
          "type": "uint8"
        },
        {
          "indexed": true,
          "name": "user",
          "type": "address"
        }
      ],
      "name": "Validation",
      "type": "event"
    },
    {
      "anonymous": false,
      "inputs": [
        {
          "indexed": true,
          "name": "result",
          "type": "uint8"
        },
        {
          "indexed": true,
          "name": "from",
          "type": "address"
        },
        {
          "indexed": true,
          "name": "to",
          "type": "address"
        },
        {
          "indexed": false,
          "name": "value",
          "type": "uint256"
        }
      ],
      "name": "Validation",
      "type": "event"
    },
    {
      "anonymous": false,
      "inputs": [
        {
          "indexed": true,
          "name": "from",
          "type": "address"
        },
        {
          "indexed": true,
          "name": "to",
          "type": "address"
        },
        {
          "indexed": false,
          "name": "amount",
          "type": "uint256"
        },
        {
          "indexed": false,
          "name": "userData",
          "type": "bytes"
        },
        {
          "indexed": true,
          "name": "operator",
          "type": "address"
        },
        {
          "indexed": false,
          "name": "operatorData",
          "type": "bytes"
        }
      ],
      "name": "Sent",
      "type": "event"
    },
    {
      "anonymous": false,
      "inputs": [
        {
          "indexed": true,
          "name": "to",
          "type": "address"
        },
        {
          "indexed": false,
          "name": "amount",
          "type": "uint256"
        },
        {
          "indexed": true,
          "name": "operator",
          "type": "address"
        },
        {
          "indexed": false,
          "name": "operatorData",
          "type": "bytes"
        }
      ],
      "name": "Minted",
      "type": "event"
    },
    {
      "anonymous": false,
      "inputs": [
        {
          "indexed": true,
          "name": "from",
          "type": "address"
        },
        {
          "indexed": false,
          "name": "amount",
          "type": "uint256"
        }
      ],
      "name": "Burned",
      "type": "event"
    },
    {
      "anonymous": false,
      "inputs": [
        {
          "indexed": true,
          "name": "operator",
          "type": "address"
        },
        {
          "indexed": true,
          "name": "tokenHolder",
          "type": "address"
        }
      ],
      "name": "AuthorizedOperator",
      "type": "event"
    },
    {
      "anonymous": false,
      "inputs": [
        {
          "indexed": true,
          "name": "operator",
          "type": "address"
        },
        {
          "indexed": true,
          "name": "tokenHolder",
          "type": "address"
        }
      ],
      "name": "RevokedOperator",
      "type": "event"
    },
    {
      "anonymous": false,
      "inputs": [
        {
          "indexed": true,
          "name": "from",
          "type": "address"
        },
        {
          "indexed": true,
          "name": "to",
          "type": "address"
        },
        {
          "indexed": false,
          "name": "value",
          "type": "uint256"
        }
      ],
      "name": "Transfer",
      "type": "event"
    },
    {
      "anonymous": false,
      "inputs": [
        {
          "indexed": true,
          "name": "owner",
          "type": "address"
        },
        {
          "indexed": true,
          "name": "spender",
          "type": "address"
        },
        {
          "indexed": false,
          "name": "value",
          "type": "uint256"
        }
      ],
      "name": "Approval",
      "type": "event"
    },
    {
      "anonymous": false,
      "inputs": [
        {
          "indexed": true,
          "name": "by",
          "type": "address"
        },
        {
          "indexed": true,
          "name": "to",
          "type": "address"
        }
      ],
      "name": "OwnershipRequested",
      "type": "event"
    },
    {
      "anonymous": false,
      "inputs": [
        {
          "indexed": true,
          "name": "from",
          "type": "address"
        },
        {
          "indexed": true,
          "name": "to",
          "type": "address"
        }
      ],
      "name": "OwnershipTransferred",
      "type": "event"
    },
    {
      "anonymous": false,
      "inputs": [],
      "name": "OwnershipRemoved",
      "type": "event"
    },
    {
      "constant": true,
      "inputs": [],
      "name": "name",
      "outputs": [
        {
          "name": "",
          "type": "string"
        }
      ],
      "payable": false,
      "stateMutability": "view",
      "type": "function"
    },
    {
      "constant": true,
      "inputs": [],
      "name": "symbol",
      "outputs": [
        {
          "name": "",
          "type": "string"
        }
      ],
      "payable": false,
      "stateMutability": "view",
      "type": "function"
    },
    {
      "constant": true,
      "inputs": [],
      "name": "granularity",
      "outputs": [
        {
          "name": "",
          "type": "uint256"
        }
      ],
      "payable": false,
      "stateMutability": "view",
      "type": "function"
    },
    {
      "constant": true,
      "inputs": [],
      "name": "totalSupply",
      "outputs": [
        {
          "name": "",
          "type": "uint256"
        }
      ],
      "payable": false,
      "stateMutability": "view",
      "type": "function"
    },
    {
      "constant": true,
      "inputs": [
        {
          "name": "_tokenHolder",
          "type": "address"
        }
      ],
      "name": "balanceOf",
      "outputs": [
        {
          "name": "",
          "type": "uint256"
        }
      ],
      "payable": false,
      "stateMutability": "view",
      "type": "function"
    },
    {
      "constant": false,
      "inputs": [
        {
          "name": "_to",
          "type": "address"
        },
        {
          "name": "_amount",
          "type": "uint256"
        }
      ],
      "name": "send",
      "outputs": [],
      "payable": false,
      "stateMutability": "nonpayable",
      "type": "function"
    },
    {
      "constant": false,
      "inputs": [
        {
          "name": "_to",
          "type": "address"
        },
        {
          "name": "_amount",
          "type": "uint256"
        },
        {
          "name": "_userData",
          "type": "bytes"
        }
      ],
      "name": "send",
      "outputs": [],
      "payable": false,
      "stateMutability": "nonpayable",
      "type": "function"
    },
    {
      "constant": false,
      "inputs": [
        {
          "name": "_operator",
          "type": "address"
        }
      ],
      "name": "authorizeOperator",
      "outputs": [],
      "payable": false,
      "stateMutability": "nonpayable",
      "type": "function"
    },
    {
      "constant": false,
      "inputs": [
        {
          "name": "_operator",
          "type": "address"
        }
      ],
      "name": "revokeOperator",
      "outputs": [],
      "payable": false,
      "stateMutability": "nonpayable",
      "type": "function"
    },
    {
      "constant": true,
      "inputs": [
        {
          "name": "_operator",
          "type": "address"
        },
        {
          "name": "_tokenHolder",
          "type": "address"
        }
      ],
      "name": "isOperatorFor",
      "outputs": [
        {
          "name": "",
          "type": "bool"
        }
      ],
      "payable": false,
      "stateMutability": "view",
      "type": "function"
    },
    {
      "constant": false,
      "inputs": [
        {
          "name": "_from",
          "type": "address"
        },
        {
          "name": "_to",
          "type": "address"
        },
        {
          "name": "_amount",
          "type": "uint256"
        },
        {
          "name": "_userData",
          "type": "bytes"
        },
        {
          "name": "_operatorData",
          "type": "bytes"
        }
      ],
      "name": "operatorSend",
      "outputs": [],
      "payable": false,
      "stateMutability": "nonpayable",
      "type": "function"
    },
    {
      "constant": false,
      "inputs": [
        {
          "name": "_tokenHolder",
          "type": "address"
        },
        {
          "name": "_amount",
          "type": "uint256"
        },
        {
          "name": "_operatorData",
          "type": "bytes"
        }
      ],
      "name": "mint",
      "outputs": [],
      "payable": false,
      "stateMutability": "nonpayable",
      "type": "function"
    },
    {
      "constant": false,
      "inputs": [
        {
          "name": "_tokenHolder",
          "type": "address"
        },
        {
          "name": "_amount",
          "type": "uint256"
        },
        {
          "name": "_userData",
          "type": "bytes"
        },
        {
          "name": "_operatorData",
          "type": "bytes"
        }
      ],
      "name": "burn",
      "outputs": [],
      "payable": false,
      "stateMutability": "nonpayable",
      "type": "function"
    },
    {
      "constant": false,
      "inputs": [],
      "name": "disableERC20",
      "outputs": [],
      "payable": false,
      "stateMutability": "nonpayable",
      "type": "function"
    },
    {
      "constant": false,
      "inputs": [],
      "name": "enableERC20",
      "outputs": [],
      "payable": false,
      "stateMutability": "nonpayable",
      "type": "function"
    },
    {
      "constant": true,
      "inputs": [],
      "name": "decimals",
      "outputs": [
        {
          "name": "",
          "type": "uint8"
        }
      ],
      "payable": false,
      "stateMutability": "view",
      "type": "function"
    },
    {
      "constant": false,
      "inputs": [
        {
          "name": "_to",
          "type": "address"
        },
        {
          "name": "_amount",
          "type": "uint256"
        }
      ],
      "name": "transfer",
      "outputs": [
        {
          "name": "success",
          "type": "bool"
        }
      ],
      "payable": false,
      "stateMutability": "nonpayable",
      "type": "function"
    },
    {
      "constant": false,
      "inputs": [
        {
          "name": "_from",
          "type": "address"
        },
        {
          "name": "_to",
          "type": "address"
        },
        {
          "name": "_amount",
          "type": "uint256"
        }
      ],
      "name": "transferFrom",
      "outputs": [
        {
          "name": "success",
          "type": "bool"
        }
      ],
      "payable": false,
      "stateMutability": "nonpayable",
      "type": "function"
    },
    {
      "constant": false,
      "inputs": [
        {
          "name": "_spender",
          "type": "address"
        },
        {
          "name": "_amount",
          "type": "uint256"
        }
      ],
      "name": "approve",
      "outputs": [
        {
          "name": "success",
          "type": "bool"
        }
      ],
      "payable": false,
      "stateMutability": "nonpayable",
      "type": "function"
    },
    {
      "constant": true,
      "inputs": [
        {
          "name": "_owner",
          "type": "address"
        },
        {
          "name": "_spender",
          "type": "address"
        }
      ],
      "name": "allowance",
      "outputs": [
        {
          "name": "remaining",
          "type": "uint256"
        }
      ],
      "payable": false,
      "stateMutability": "view",
      "type": "function"
    }
  ],
  "bytecode": "0x6060604052739aa513f1294c8f1b254ba1188991b4cc2efe1d3b600260006101000a81548173ffffffffffffffffffffffffffffffffffffffff021916908373ffffffffffffffffffffffffffffffffffffffff16021790555034156200006557600080fd5b604051620031453803806200314583398101604052808051820191906020018051820191906020018051906020019091908051906020019091905050336000806101000a81548173ffffffffffffffffffffffffffffffffffffffff021916908373ffffffffffffffffffffffffffffffffffffffff1602179055508360039080519060200190620000f9929190620003c7565b50826004908051906020019062000112929190620003c7565b5060006006819055506001600760006101000a81548160ff021916908315150217905550600182101515156200014757600080fd5b8160058190555080600b60006101000a81548173ffffffffffffffffffffffffffffffffffffffff021916908373ffffffffffffffffffffffffffffffffffffffff160217905550620001e46040805190810160405280600781526020017f496572633737370000000000000000000000000000000000000000000000000081525030620002436401000000000262001fc0176401000000009004565b620002396040805190810160405280600681526020017f496572633230000000000000000000000000000000000000000000000000000081525030620002436401000000000262001fc0176401000000009004565b5050505062000476565b6000826040518082805190602001908083835b6020831015156200027d578051825260208201915060208101905060208303925062000256565b6001836020036101000a03801982511681845116808217855250505050505090500191505060405180910390209050600260009054906101000a900473ffffffffffffffffffffffffffffffffffffffff1673ffffffffffffffffffffffffffffffffffffffff166329965a1d3083856040518463ffffffff167c0100000000000000000000000000000000000000000000000000000000028152600401808473ffffffffffffffffffffffffffffffffffffffff1673ffffffffffffffffffffffffffffffffffffffff16815260200183600019166000191681526020018273ffffffffffffffffffffffffffffffffffffffff1673ffffffffffffffffffffffffffffffffffffffff1681526020019350505050600060405180830381600087803b1515620003ad57600080fd5b6102c65a03f11515620003bf57600080fd5b505050505050565b828054600181600116156101000203166002900490600052602060002090601f016020900481019282601f106200040a57805160ff19168380011785556200043b565b828001600101855582156200043b579182015b828111156200043a5782518255916020019190600101906200041d565b5b5090506200044a91906200044e565b5090565b6200047391905b808211156200046f57600081600090555060010162000455565b5090565b90565b612cbf80620004866000396000f300606060405260043610610154576000357c0100000000000000000000000000000000000000000000000000000000900463ffffffff16806306fdde0314610159578063070c87f9146101e7578063095ea7b3146101fc57806318160ddd14610256578063190a6aa91461027f57806323b872dd146103475780632af4c31e146103c0578063313ce567146103f9578063556f0dc71461042857806362ad1b8314610451578063666a34271461053857806370a0823114610571578063710bf322146105be57806379ba5097146105f75780638da5cb5b1461060c57806394d008ef14610661578063959b8c3f146106e657806395d89b411461071f5780639bd9bbc6146107ad578063a9059cbb14610832578063d0679d341461088c578063d091b550146108ce578063d95b637114610923578063dd62ed3e14610993578063f922f216146109ff578063fad8b32a14610a14575b600080fd5b341561016457600080fd5b61016c610a4d565b6040518080602001828103825283818151815260200191508051906020019080838360005b838110156101ac578082015181840152602081019050610191565b50505050905090810190601f1680156101d95780820380516001836020036101000a031916815260200191505b509250505060405180910390f35b34156101f257600080fd5b6101fa610af5565b005b341561020757600080fd5b61023c600480803573ffffffffffffffffffffffffffffffffffffffff16906020019091908035906020019091905050610bac565b604051808215151515815260200191505060405180910390f35b341561026157600080fd5b610269610cda565b6040518082815260200191505060405180910390f35b341561028a57600080fd5b610345600480803573ffffffffffffffffffffffffffffffffffffffff1690602001909190803590602001909190803590602001908201803590602001908080601f0160208091040260200160405190810160405280939291908181526020018383808284378201915050505050509190803590602001908201803590602001908080601f01602080910402602001604051908101604052809392919081815260200183838082843782019150505050505091905050610ce4565b005b341561035257600080fd5b6103a6600480803573ffffffffffffffffffffffffffffffffffffffff1690602001909190803573ffffffffffffffffffffffffffffffffffffffff16906020019091908035906020019091905050610ec9565b604051808215151515815260200191505060405180910390f35b34156103cb57600080fd5b6103f7600480803573ffffffffffffffffffffffffffffffffffffffff169060200190919050506110ce565b005b341561040457600080fd5b61040c611276565b604051808260ff1660ff16815260200191505060405180910390f35b341561043357600080fd5b61043b61129a565b6040518082815260200191505060405180910390f35b341561045c57600080fd5b610536600480803573ffffffffffffffffffffffffffffffffffffffff1690602001909190803573ffffffffffffffffffffffffffffffffffffffff1690602001909190803590602001909190803590602001908201803590602001908080601f0160208091040260200160405190810160405280939291908181526020018383808284378201915050505050509190803590602001908201803590602001908080601f016020809104026020016040519081016040528093929190818152602001838380828437820191505050505050919050506112a4565b005b341561054357600080fd5b61056f600480803573ffffffffffffffffffffffffffffffffffffffff169060200190919050506112d0565b005b341561057c57600080fd5b6105a8600480803573ffffffffffffffffffffffffffffffffffffffff16906020019091905050611403565b6040518082815260200191505060405180910390f35b34156105c957600080fd5b6105f5600480803573ffffffffffffffffffffffffffffffffffffffff1690602001909190505061144c565b005b341561060257600080fd5b61060a611567565b005b341561061757600080fd5b61061f61170b565b604051808273ffffffffffffffffffffffffffffffffffffffff1673ffffffffffffffffffffffffffffffffffffffff16815260200191505060405180910390f35b341561066c57600080fd5b6106e4600480803573ffffffffffffffffffffffffffffffffffffffff1690602001909190803590602001909190803590602001908201803590602001908080601f01602080910402602001604051908101604052809392919081815260200183838082843782019150505050505091905050611730565b005b34156106f157600080fd5b61071d600480803573ffffffffffffffffffffffffffffffffffffffff169060200190919050506119b3565b005b341561072a57600080fd5b610732611af1565b6040518080602001828103825283818151815260200191508051906020019080838360005b83811015610772578082015181840152602081019050610757565b50505050905090810190601f16801561079f5780820380516001836020036101000a031916815260200191505b509250505060405180910390f35b34156107b857600080fd5b610830600480803573ffffffffffffffffffffffffffffffffffffffff1690602001909190803590602001909190803590602001908201803590602001908080601f01602080910402602001604051908101604052809392919081815260200183838082843782019150505050505091905050611b99565b005b341561083d57600080fd5b610872600480803573ffffffffffffffffffffffffffffffffffffffff16906020019091908035906020019091905050611bbe565b604051808215151515815260200191505060405180910390f35b341561089757600080fd5b6108cc600480803573ffffffffffffffffffffffffffffffffffffffff16906020019091908035906020019091905050611c15565b005b34156108d957600080fd5b6108e1611c49565b604051808273ffffffffffffffffffffffffffffffffffffffff1673ffffffffffffffffffffffffffffffffffffffff16815260200191505060405180910390f35b341561092e57600080fd5b610979600480803573ffffffffffffffffffffffffffffffffffffffff1690602001909190803573ffffffffffffffffffffffffffffffffffffffff16906020019091905050611c6f565b604051808215151515815260200191505060405180910390f35b341561099e57600080fd5b6109e9600480803573ffffffffffffffffffffffffffffffffffffffff1690602001909190803573ffffffffffffffffffffffffffffffffffffffff16906020019091905050611d39565b6040518082815260200191505060405180910390f35b3415610a0a57600080fd5b610a12611ddb565b005b3415610a1f57600080fd5b610a4b600480803573ffffffffffffffffffffffffffffffffffffffff16906020019091905050611e93565b005b610a55612c7f565b60038054600181600116156101000203166002900480601f016020809104026020016040519081016040528092919081815260200182805460018160011615610100020316600290048015610aeb5780601f10610ac057610100808354040283529160200191610aeb565b820191906000526020600020905b815481529060010190602001808311610ace57829003601f168201915b5050505050905090565b6000809054906101000a900473ffffffffffffffffffffffffffffffffffffffff1673ffffffffffffffffffffffffffffffffffffffff163373ffffffffffffffffffffffffffffffffffffffff16141515610b5057600080fd5b6001600760006101000a81548160ff021916908315150217905550610baa6040805190810160405280600681526020017f496572633230000000000000000000000000000000000000000000000000000081525030611fc0565b565b6000600760009054906101000a900460ff161515610bc957600080fd5b6001610bd6338585612140565b60ff16141515610be95760009050610cd4565b81600a60003373ffffffffffffffffffffffffffffffffffffffff1673ffffffffffffffffffffffffffffffffffffffff16815260200190815260200160002060008573ffffffffffffffffffffffffffffffffffffffff1673ffffffffffffffffffffffffffffffffffffffff168152602001908152602001600020819055508273ffffffffffffffffffffffffffffffffffffffff163373ffffffffffffffffffffffffffffffffffffffff167f8c5be1e5ebec7d5bd14f71427d1e84f3dd0314c0f7b2291e5b200ac8c7c3b925846040518082815260200191505060405180910390a3600190505b92915050565b6000600654905090565b6000809054906101000a900473ffffffffffffffffffffffffffffffffffffffff1673ffffffffffffffffffffffffffffffffffffffff163373ffffffffffffffffffffffffffffffffffffffff16141515610d3f57600080fd5b610d488361229b565b82610d5285611403565b10151515610d5f57600080fd5b610db183600860008773ffffffffffffffffffffffffffffffffffffffff1673ffffffffffffffffffffffffffffffffffffffff168152602001908152602001600020546122d490919063ffffffff16565b600860008673ffffffffffffffffffffffffffffffffffffffff1673ffffffffffffffffffffffffffffffffffffffff16815260200190815260200160002081905550610e09836006546122d490919063ffffffff16565b6006819055508373ffffffffffffffffffffffffffffffffffffffff167f696de425f79f4a40bc6d2122ca50507f0efbeabbff86a84871b7196ab8ea8df7846040518082815260200191505060405180910390a2600760009054906101000a900460ff1615610ec35760008473ffffffffffffffffffffffffffffffffffffffff167fddf252ad1be2c89b69c2b068fc378daa952ba7f163c4a11628f55a4df523b3ef856040518082815260200191505060405180910390a35b50505050565b6000600760009054906101000a900460ff161515610ee657600080fd5b610ef9610ef4858585612140565b6122ed565b600a60008573ffffffffffffffffffffffffffffffffffffffff1673ffffffffffffffffffffffffffffffffffffffff16815260200190815260200160002060003373ffffffffffffffffffffffffffffffffffffffff1673ffffffffffffffffffffffffffffffffffffffff168152602001908152602001600020548211151515610f8457600080fd5b61101382600a60008773ffffffffffffffffffffffffffffffffffffffff1673ffffffffffffffffffffffffffffffffffffffff16815260200190815260200160002060003373ffffffffffffffffffffffffffffffffffffffff1673ffffffffffffffffffffffffffffffffffffffff168152602001908152602001600020546122d490919063ffffffff16565b600a60008673ffffffffffffffffffffffffffffffffffffffff1673ffffffffffffffffffffffffffffffffffffffff16815260200190815260200160002060003373ffffffffffffffffffffffffffffffffffffffff1673ffffffffffffffffffffffffffffffffffffffff168152602001908152602001600020819055506110c384848460206040519081016040528060008152503360206040519081016040528060008152506000612302565b600190509392505050565b60008060009054906101000a900473ffffffffffffffffffffffffffffffffffffffff1673ffffffffffffffffffffffffffffffffffffffff163373ffffffffffffffffffffffffffffffffffffffff1614151561112b57600080fd5b60008273ffffffffffffffffffffffffffffffffffffffff161415151561115157600080fd5b6000809054906101000a900473ffffffffffffffffffffffffffffffffffffffff169050816000806101000a81548173ffffffffffffffffffffffffffffffffffffffff021916908373ffffffffffffffffffffffffffffffffffffffff1602179055506000600160006101000a81548173ffffffffffffffffffffffffffffffffffffffff021916908373ffffffffffffffffffffffffffffffffffffffff1602179055506000809054906101000a900473ffffffffffffffffffffffffffffffffffffffff1673ffffffffffffffffffffffffffffffffffffffff168173ffffffffffffffffffffffffffffffffffffffff167f8be0079c531659141344cd1fd0a4f28419497f9722a3daafe3b4186f6b6457e060405160405180910390a35050565b6000600760009054906101000a900460ff16151561129357600080fd5b6012905090565b6000600554905090565b6112ae3386611c6f565b15156112b957600080fd5b6112c98585858533866001612302565b5050505050565b6000809054906101000a900473ffffffffffffffffffffffffffffffffffffffff1673ffffffffffffffffffffffffffffffffffffffff163373ffffffffffffffffffffffffffffffffffffffff1614151561132b57600080fd5b610dac8173ffffffffffffffffffffffffffffffffffffffff1614151561135157600080fd5b60008060006101000a81548173ffffffffffffffffffffffffffffffffffffffff021916908373ffffffffffffffffffffffffffffffffffffffff1602179055506000600160006101000a81548173ffffffffffffffffffffffffffffffffffffffff021916908373ffffffffffffffffffffffffffffffffffffffff1602179055507f94e8b32e01b9eedfddd778ffbd051a7718cdc14781702884561162dca6f74dbb60405160405180910390a150565b6000600860008373ffffffffffffffffffffffffffffffffffffffff1673ffffffffffffffffffffffffffffffffffffffff168152602001908152602001600020549050919050565b6000809054906101000a900473ffffffffffffffffffffffffffffffffffffffff1673ffffffffffffffffffffffffffffffffffffffff163373ffffffffffffffffffffffffffffffffffffffff161415156114a757600080fd5b80600160006101000a81548173ffffffffffffffffffffffffffffffffffffffff021916908373ffffffffffffffffffffffffffffffffffffffff160217905550600160009054906101000a900473ffffffffffffffffffffffffffffffffffffffff1673ffffffffffffffffffffffffffffffffffffffff163373ffffffffffffffffffffffffffffffffffffffff167f13a4b3bc0d5234dd3d87c9f1557d8faefa37986da62c36ba49309e2fb2c9aec460405160405180910390a350565b6000600160009054906101000a900473ffffffffffffffffffffffffffffffffffffffff1673ffffffffffffffffffffffffffffffffffffffff163373ffffffffffffffffffffffffffffffffffffffff161415156115c557600080fd5b6000809054906101000a900473ffffffffffffffffffffffffffffffffffffffff169050600160009054906101000a900473ffffffffffffffffffffffffffffffffffffffff166000806101000a81548173ffffffffffffffffffffffffffffffffffffffff021916908373ffffffffffffffffffffffffffffffffffffffff1602179055506000600160006101000a81548173ffffffffffffffffffffffffffffffffffffffff021916908373ffffffffffffffffffffffffffffffffffffffff1602179055506000809054906101000a900473ffffffffffffffffffffffffffffffffffffffff1673ffffffffffffffffffffffffffffffffffffffff168173ffffffffffffffffffffffffffffffffffffffff167f8be0079c531659141344cd1fd0a4f28419497f9722a3daafe3b4186f6b6457e060405160405180910390a350565b6000809054906101000a900473ffffffffffffffffffffffffffffffffffffffff1681565b6000809054906101000a900473ffffffffffffffffffffffffffffffffffffffff1673ffffffffffffffffffffffffffffffffffffffff163373ffffffffffffffffffffffffffffffffffffffff1614151561178b57600080fd5b61179c611797846126ce565b6122ed565b6117a58261229b565b6117ba826006546127f090919063ffffffff16565b60068190555061181282600860008673ffffffffffffffffffffffffffffffffffffffff1673ffffffffffffffffffffffffffffffffffffffff168152602001908152602001600020546127f090919063ffffffff16565b600860008573ffffffffffffffffffffffffffffffffffffffff1673ffffffffffffffffffffffffffffffffffffffff168152602001908152602001600020819055506118763360008585602060405190810160405280600081525086600161280e565b3373ffffffffffffffffffffffffffffffffffffffff168373ffffffffffffffffffffffffffffffffffffffff167ffedc9d3d7d2dc09d33f2454ca41b1ef178b3bbf37b69fa47d602a8738d5ebdba84846040518083815260200180602001828103825283818151815260200191508051906020019080838360005b8381101561190d5780820151818401526020810190506118f2565b50505050905090810190601f16801561193a5780820380516001836020036101000a031916815260200191505b50935050505060405180910390a3600760009054906101000a900460ff16156119ae578273ffffffffffffffffffffffffffffffffffffffff1660007fddf252ad1be2c89b69c2b068fc378daa952ba7f163c4a11628f55a4df523b3ef846040518082815260200191505060405180910390a35b505050565b3373ffffffffffffffffffffffffffffffffffffffff168173ffffffffffffffffffffffffffffffffffffffff16141515156119ee57600080fd5b6119ff6119fa826126ce565b6122ed565b6001600960008373ffffffffffffffffffffffffffffffffffffffff1673ffffffffffffffffffffffffffffffffffffffff16815260200190815260200160002060003373ffffffffffffffffffffffffffffffffffffffff1673ffffffffffffffffffffffffffffffffffffffff16815260200190815260200160002060006101000a81548160ff0219169083151502179055503373ffffffffffffffffffffffffffffffffffffffff168173ffffffffffffffffffffffffffffffffffffffff167ff4caeb2d6ca8932a215a353d0703c326ec2d81fc68170f320eb2ab49e9df61f960405160405180910390a350565b611af9612c7f565b60048054600181600116156101000203166002900480601f016020809104026020016040519081016040528092919081815260200182805460018160011615610100020316600290048015611b8f5780601f10611b6457610100808354040283529160200191611b8f565b820191906000526020600020905b815481529060010190602001808311611b7257829003601f168201915b5050505050905090565b611bb9338484843360206040519081016040528060008152506001612302565b505050565b6000600760009054906101000a900460ff161515611bdb57600080fd5b611c0b33848460206040519081016040528060008152503360206040519081016040528060008152506000612302565b6001905092915050565b611c4533838360206040519081016040528060008152503360206040519081016040528060008152506001612302565b5050565b600160009054906101000a900473ffffffffffffffffffffffffffffffffffffffff1681565b60008173ffffffffffffffffffffffffffffffffffffffff168373ffffffffffffffffffffffffffffffffffffffff161480611d315750600960008473ffffffffffffffffffffffffffffffffffffffff1673ffffffffffffffffffffffffffffffffffffffff16815260200190815260200160002060008373ffffffffffffffffffffffffffffffffffffffff1673ffffffffffffffffffffffffffffffffffffffff16815260200190815260200160002060009054906101000a900460ff165b905092915050565b6000600760009054906101000a900460ff161515611d5657600080fd5b600a60008473ffffffffffffffffffffffffffffffffffffffff1673ffffffffffffffffffffffffffffffffffffffff16815260200190815260200160002060008373ffffffffffffffffffffffffffffffffffffffff1673ffffffffffffffffffffffffffffffffffffffff16815260200190815260200160002054905092915050565b6000809054906101000a900473ffffffffffffffffffffffffffffffffffffffff1673ffffffffffffffffffffffffffffffffffffffff163373ffffffffffffffffffffffffffffffffffffffff16141515611e3657600080fd5b6000600760006101000a81548160ff021916908315150217905550611e916040805190810160405280600681526020017f49657263323000000000000000000000000000000000000000000000000000008152506000611fc0565b565b3373ffffffffffffffffffffffffffffffffffffffff168173ffffffffffffffffffffffffffffffffffffffff1614151515611ece57600080fd5b6000600960008373ffffffffffffffffffffffffffffffffffffffff1673ffffffffffffffffffffffffffffffffffffffff16815260200190815260200160002060003373ffffffffffffffffffffffffffffffffffffffff1673ffffffffffffffffffffffffffffffffffffffff16815260200190815260200160002060006101000a81548160ff0219169083151502179055503373ffffffffffffffffffffffffffffffffffffffff168173ffffffffffffffffffffffffffffffffffffffff167f50546e66e5f44d728365dc3908c63bc5cfeeab470722c1677e3073a6ac294aa160405160405180910390a350565b6000826040518082805190602001908083835b602083101515611ff85780518252602082019150602081019050602083039250611fd3565b6001836020036101000a03801982511681845116808217855250505050505090500191505060405180910390209050600260009054906101000a900473ffffffffffffffffffffffffffffffffffffffff1673ffffffffffffffffffffffffffffffffffffffff166329965a1d3083856040518463ffffffff167c0100000000000000000000000000000000000000000000000000000000028152600401808473ffffffffffffffffffffffffffffffffffffffff1673ffffffffffffffffffffffffffffffffffffffff16815260200183600019166000191681526020018273ffffffffffffffffffffffffffffffffffffffff1673ffffffffffffffffffffffffffffffffffffffff1681526020019350505050600060405180830381600087803b151561212757600080fd5b6102c65a03f1151561213857600080fd5b505050505050565b6000600b60009054906101000a900473ffffffffffffffffffffffffffffffffffffffff1673ffffffffffffffffffffffffffffffffffffffff16634277b5b1308686866000604051602001526040518563ffffffff167c0100000000000000000000000000000000000000000000000000000000028152600401808573ffffffffffffffffffffffffffffffffffffffff1673ffffffffffffffffffffffffffffffffffffffff1681526020018473ffffffffffffffffffffffffffffffffffffffff1673ffffffffffffffffffffffffffffffffffffffff1681526020018373ffffffffffffffffffffffffffffffffffffffff1673ffffffffffffffffffffffffffffffffffffffff168152602001828152602001945050505050602060405180830381600087803b151561227757600080fd5b6102c65a03f1151561228857600080fd5b5050506040518051905090509392505050565b806122c56005546122b760055485612a9490919063ffffffff16565b612aaf90919063ffffffff16565b1415156122d157600080fd5b50565b60008282111515156122e257fe5b818303905092915050565b60018160ff161415156122ff57600080fd5b50565b612315612310888888612140565b6122ed565b61231e8561229b565b600073ffffffffffffffffffffffffffffffffffffffff168673ffffffffffffffffffffffffffffffffffffffff161415151561235a57600080fd5b84600860008973ffffffffffffffffffffffffffffffffffffffff1673ffffffffffffffffffffffffffffffffffffffff16815260200190815260200160002054101515156123a857600080fd5b6123bb6123b6888888612140565b6122ed565b61240d85600860008a73ffffffffffffffffffffffffffffffffffffffff1673ffffffffffffffffffffffffffffffffffffffff168152602001908152602001600020546122d490919063ffffffff16565b600860008973ffffffffffffffffffffffffffffffffffffffff1673ffffffffffffffffffffffffffffffffffffffff168152602001908152602001600020819055506124a285600860008973ffffffffffffffffffffffffffffffffffffffff1673ffffffffffffffffffffffffffffffffffffffff168152602001908152602001600020546127f090919063ffffffff16565b600860008873ffffffffffffffffffffffffffffffffffffffff1673ffffffffffffffffffffffffffffffffffffffff168152602001908152602001600020819055506124f48388888888878761280e565b8273ffffffffffffffffffffffffffffffffffffffff168673ffffffffffffffffffffffffffffffffffffffff168873ffffffffffffffffffffffffffffffffffffffff167fc6bcce9531825c4f1772efa373d6fa8ccb63064ff1fd841aa151c8e8dd9bb39b888887604051808481526020018060200180602001838103835285818151815260200191508051906020019080838360005b838110156125a757808201518184015260208101905061258c565b50505050905090810190601f1680156125d45780820380516001836020036101000a031916815260200191505b50838103825284818151815260200191508051906020019080838360005b8381101561260d5780820151818401526020810190506125f2565b50505050905090810190601f16801561263a5780820380516001836020036101000a031916815260200191505b509550505050505060405180910390a4600760009054906101000a900460ff16156126c5578573ffffffffffffffffffffffffffffffffffffffff168773ffffffffffffffffffffffffffffffffffffffff167fddf252ad1be2c89b69c2b068fc378daa952ba7f163c4a11628f55a4df523b3ef876040518082815260200191505060405180910390a35b50505050505050565b600080309050600b60009054906101000a900473ffffffffffffffffffffffffffffffffffffffff1673ffffffffffffffffffffffffffffffffffffffff1663b3154db082856000604051602001526040518363ffffffff167c0100000000000000000000000000000000000000000000000000000000028152600401808373ffffffffffffffffffffffffffffffffffffffff1673ffffffffffffffffffffffffffffffffffffffff1681526020018273ffffffffffffffffffffffffffffffffffffffff1673ffffffffffffffffffffffffffffffffffffffff16815260200192505050602060405180830381600087803b15156127cd57600080fd5b6102c65a03f115156127de57600080fd5b50505060405180519050915050919050565b600080828401905083811015151561280457fe5b8091505092915050565b600061284f866040805190810160405280600f81526020017f49546f6b656e526563697069656e740000000000000000000000000000000000815250612ae2565b905060008173ffffffffffffffffffffffffffffffffffffffff16141515612a6e578073ffffffffffffffffffffffffffffffffffffffff1663898b4429888888888d896040518763ffffffff167c0100000000000000000000000000000000000000000000000000000000028152600401808773ffffffffffffffffffffffffffffffffffffffff1673ffffffffffffffffffffffffffffffffffffffff1681526020018673ffffffffffffffffffffffffffffffffffffffff1673ffffffffffffffffffffffffffffffffffffffff168152602001858152602001806020018473ffffffffffffffffffffffffffffffffffffffff1673ffffffffffffffffffffffffffffffffffffffff16815260200180602001838103835286818151815260200191508051906020019080838360005b8381101561299e578082015181840152602081019050612983565b50505050905090810190601f1680156129cb5780820380516001836020036101000a031916815260200191505b50838103825284818151815260200191508051906020019080838360005b83811015612a045780820151818401526020810190506129e9565b50505050905090810190601f168015612a315780820380516001836020036101000a031916815260200191505b5098505050505050505050600060405180830381600087803b1515612a5557600080fd5b6102c65a03f11515612a6657600080fd5b505050612a8a565b8115612a8957612a7d86612c43565b1515612a8857600080fd5b5b5b5050505050505050565b6000808284811515612aa257fe5b0490508091505092915050565b60008082840290506000841480612ad05750828482811515612acd57fe5b04145b1515612ad857fe5b8091505092915050565b600080826040518082805190602001908083835b602083101515612b1b5780518252602082019150602081019050602083039250612af6565b6001836020036101000a03801982511681845116808217855250505050505090500191505060405180910390209050600260009054906101000a900473ffffffffffffffffffffffffffffffffffffffff1673ffffffffffffffffffffffffffffffffffffffff1663aabbb8ca85836000604051602001526040518363ffffffff167c0100000000000000000000000000000000000000000000000000000000028152600401808373ffffffffffffffffffffffffffffffffffffffff1673ffffffffffffffffffffffffffffffffffffffff168152602001826000191660001916815260200192505050602060405180830381600087803b1515612c1f57600080fd5b6102c65a03f11515612c3057600080fd5b5050506040518051905091505092915050565b60008060008373ffffffffffffffffffffffffffffffffffffffff161415612c6e5760009150612c79565b823b90506000811491505b50919050565b6020604051908101604052806000815250905600a165627a7a72305820c0688137e1bf3bfc96a6e942a7229cb9fb8c138e92b4055f6f1b0d6025f339170029",
  "source": "pragma solidity ^0.4.19;\n\nimport \"./ValidatedToken.sol\";\nimport \"./TokenValidator.sol\";\n\nimport \"eip820/contracts/EIP820Implementer.sol\";\nimport \"giveth-common-contracts/contracts/Owned.sol\";\nimport \"giveth-common-contracts/contracts/SafeMath.sol\";\n\nimport \"eip777/contracts/Ierc20.sol\";\nimport \"eip777/contracts/Ierc777.sol\";\nimport \"eip777/contracts/ITokenRecipient.sol\";\n\ncontract ReferenceToken is Owned, Ierc20, Ierc777, EIP820Implementer {\n    using SafeMath for uint256;\n\n    string private mName;\n    string private mSymbol;\n\n    uint256 private mGranularity;\n    uint256 private mTotalSupply;\n\n    bool private mErc20compatible;\n\n    mapping(address => uint) private mBalances;\n    mapping(address => mapping(address => bool)) private mAuthorized;\n    mapping(address => mapping(address => uint256)) private mAllowed;\n\n    // Single validator\n\n    TokenValidator private validator;\n\n    // Validation Events\n\n    event Validation(uint8 indexed result, address indexed user);\n\n    event Validation(\n      uint8   indexed result,\n      address indexed from,\n      address indexed to,\n      uint256         value\n    );\n\n    function ReferenceToken(string _name, string _symbol, uint256 _granularity, TokenValidator _validator) public {\n        mName = _name;\n        mSymbol = _symbol;\n        mTotalSupply = 0;\n        mErc20compatible = true;\n        require(_granularity >= 1);\n        mGranularity = _granularity;\n        validator = TokenValidator(_validator);\n\n        setInterfaceImplementation(\"Ierc777\", this);\n        setInterfaceImplementation(\"Ierc20\", this);\n    }\n\n    // Validator Helpers\n\n    function validate(address _user) internal returns (uint8 resultCode) {\n      address moi = this;\n      return validator.check(moi, _user);\n    }\n\n    function validate(address _from, address _to, uint256 _amount) internal returns (uint8 resultCode) {\n      return validator.check(this, _from, _to, _amount);\n    }\n\n    // Status Code Helpers\n\n    function requireOk(uint8 _statusCode) internal pure {\n      require(_statusCode == 1);\n    }\n\n    // EIP-777\n\n    function name() public constant returns (string) { return mName; }\n\n    function symbol() public constant returns(string) { return mSymbol; }\n\n    function granularity() public constant returns(uint256) { return mGranularity; }\n\n    function totalSupply() public constant returns(uint256) { return mTotalSupply; }\n\n    function balanceOf(address _tokenHolder) public constant returns (uint256) { return mBalances[_tokenHolder]; }\n\n    function send(address _to, uint256 _amount) public {\n        doSend(msg.sender, _to, _amount, \"\", msg.sender, \"\", true);\n    }\n\n    function send(address _to, uint256 _amount, bytes _userData) public {\n        doSend(msg.sender, _to, _amount, _userData, msg.sender, \"\", true);\n    }\n\n    function authorizeOperator(address _operator) public {\n        require(_operator != msg.sender);\n        requireOk(validate(_operator));\n\n        mAuthorized[_operator][msg.sender] = true;\n        AuthorizedOperator(_operator, msg.sender);\n    }\n\n    function revokeOperator(address _operator) public {\n        require(_operator != msg.sender);\n        mAuthorized[_operator][msg.sender] = false;\n        RevokedOperator(_operator, msg.sender);\n    }\n\n    function isOperatorFor(address _operator, address _tokenHolder) public constant returns (bool) {\n        return _operator == _tokenHolder || mAuthorized[_operator][_tokenHolder];\n    }\n\n    function operatorSend(address _from, address _to, uint256 _amount, bytes _userData, bytes _operatorData) public {\n        require(isOperatorFor(msg.sender, _from));\n        doSend(_from, _to, _amount, _userData, msg.sender, _operatorData, true);\n    }\n\n    function mint(address _tokenHolder, uint256 _amount, bytes _operatorData) public onlyOwner {\n        requireOk(validate(_tokenHolder));\n        requireMultiple(_amount);\n\n        mTotalSupply = mTotalSupply.add(_amount);\n        mBalances[_tokenHolder] = mBalances[_tokenHolder].add(_amount);\n\n        callRecipient(msg.sender, 0x0, _tokenHolder, _amount, \"\", _operatorData, true);\n\n        Minted(_tokenHolder, _amount, msg.sender, _operatorData);\n        if (mErc20compatible) { Transfer(0x0, _tokenHolder, _amount); }\n    }\n\n    function burn(address _tokenHolder, uint256 _amount, bytes _userData, bytes _operatorData) public onlyOwner { // solhint-disable-line no-unused-vars\n        requireMultiple(_amount);\n        require(balanceOf(_tokenHolder) >= _amount);\n\n        mBalances[_tokenHolder] = mBalances[_tokenHolder].sub(_amount);\n        mTotalSupply = mTotalSupply.sub(_amount);\n\n        Burned(_tokenHolder, _amount);\n        if (mErc20compatible) { Transfer(_tokenHolder, 0x0, _amount); }\n    }\n\n    modifier erc20 () {\n        require(mErc20compatible);\n        _;\n    }\n\n    function disableERC20() public onlyOwner {\n        mErc20compatible = false;\n        setInterfaceImplementation(\"Ierc20\", 0x0);\n    }\n\n    function enableERC20() public onlyOwner {\n        mErc20compatible = true;\n        setInterfaceImplementation(\"Ierc20\", this);\n    }\n\n    function decimals() public erc20 constant returns (uint8) { return uint8(18); }\n\n    function transfer(address _to, uint256 _amount) public erc20 returns (bool success) {\n        doSend(msg.sender, _to, _amount, \"\", msg.sender, \"\", false);\n        return true;\n    }\n\n    function transferFrom(address _from, address _to, uint256 _amount) public erc20 returns (bool success) {\n        requireOk(validate(_from, _to, _amount));\n\n        require(_amount <= mAllowed[_from][msg.sender]);\n\n        // Cannot be after doSend because of tokensReceived re-entry\n        mAllowed[_from][msg.sender] = mAllowed[_from][msg.sender].sub(_amount);\n        doSend(_from, _to, _amount, \"\", msg.sender, \"\", false);\n        return true;\n    }\n\n    function approve(address _spender, uint256 _amount) public erc20 returns (bool success) {\n      if(validate(msg.sender, _spender, _amount) != 1) { return false; }\n\n        mAllowed[msg.sender][_spender] = _amount;\n        Approval(msg.sender, _spender, _amount);\n        return true;\n    }\n\n    function allowance(address _owner, address _spender) public erc20 constant returns (uint256 remaining) {\n        return mAllowed[_owner][_spender];\n    }\n\n    function requireMultiple(uint256 _amount) internal view {\n        require(_amount.div(mGranularity).mul(mGranularity) == _amount);\n    }\n\n    function isRegularAddress(address _addr) internal constant returns(bool) {\n        if (_addr == 0) { return false; }\n        uint size;\n        assembly { size := extcodesize(_addr) } // solhint-disable-line no-inline-assembly\n        return size == 0;\n    }\n\n    function doSend(\n        address _from,\n        address _to,\n        uint256 _amount,\n        bytes _userData,\n        address _operator,\n        bytes _operatorData,\n        bool _preventLocking\n    ) private {\n        requireOk(validate(_from, _to, _amount));\n        requireMultiple(_amount);\n        require(_to != address(0));          // forbid sending to 0x0 (=burning)\n        require(mBalances[_from] >= _amount); // ensure enough funds\n        requireOk(validate(_from, _to, _amount));\n\n        mBalances[_from] = mBalances[_from].sub(_amount);\n        mBalances[_to] = mBalances[_to].add(_amount);\n\n        callRecipient(_operator, _from, _to, _amount, _userData, _operatorData, _preventLocking);\n\n        Sent(_from, _to, _amount, _userData, _operator, _operatorData);\n        if (mErc20compatible) { Transfer(_from, _to, _amount); }\n    }\n\n    function callRecipient(\n        address _operator,\n        address _from,\n        address _to,\n        uint256 _amount,\n        bytes _userData,\n        bytes _operatorData,\n        bool _preventLocking\n    ) private {\n        address recipientImplementation = interfaceAddr(_to, \"ITokenRecipient\");\n\n        if (recipientImplementation != 0) {\n          ITokenRecipient(recipientImplementation)\n            .tokensReceived(_from, _to, _amount, _userData, _operator, _operatorData);\n        } else if (_preventLocking) {\n            require(isRegularAddress(_to));\n        }\n    }\n}\n",
  "sourcePath": "/Users/expede/Documents/Work/Finhaven/ValidatedToken/contracts/ReferenceToken.sol",
  "compiler": {
    "name": "solc",
    "version": "0.4.19+commit.c4cbbb05.Emscripten.clang"
  },
  "schemaVersion": "1.0.1",
  "updatedAt": "2018-02-15T06:30:47.468Z"
}